{
  "contractName": "ProductMarketplace",
  "abi": [
    {
      "inputs": [],
      "stateMutability": "nonpayable",
      "type": "constructor"
    },
    {
      "inputs": [],
      "name": "InvalidState",
      "type": "error"
    },
    {
      "inputs": [],
      "name": "OnlyOwner",
      "type": "error"
    },
    {
      "inputs": [],
      "name": "ProductHasOwner",
      "type": "error"
    },
    {
      "inputs": [],
      "name": "ProductIsNotCreated",
      "type": "error"
    },
    {
      "inputs": [],
      "name": "SenderIsNotProductOwner",
      "type": "error"
    },
    {
      "inputs": [],
      "name": "isStopped",
      "outputs": [
        {
          "internalType": "bool",
          "name": "",
          "type": "bool"
        }
      ],
      "stateMutability": "view",
      "type": "function",
      "constant": true
    },
    {
      "stateMutability": "payable",
      "type": "receive",
      "payable": true
    },
    {
      "inputs": [
        {
          "internalType": "uint256",
          "name": "amount",
          "type": "uint256"
        }
      ],
      "name": "withdraw",
      "outputs": [],
      "stateMutability": "nonpayable",
      "type": "function"
    },
    {
      "inputs": [],
      "name": "emergencyWithdraw",
      "outputs": [],
      "stateMutability": "nonpayable",
      "type": "function"
    },
    {
      "inputs": [],
      "name": "selfDestruct",
      "outputs": [],
      "stateMutability": "nonpayable",
      "type": "function"
    },
    {
      "inputs": [],
      "name": "stopContract",
      "outputs": [],
      "stateMutability": "nonpayable",
      "type": "function"
    },
    {
      "inputs": [],
      "name": "resumeContract",
      "outputs": [],
      "stateMutability": "nonpayable",
      "type": "function"
    },
    {
      "inputs": [
        {
          "internalType": "bytes16",
          "name": "productId",
          "type": "bytes16"
        },
        {
          "internalType": "bytes32",
          "name": "proof",
          "type": "bytes32"
        }
      ],
      "name": "purchaseProduct",
      "outputs": [],
      "stateMutability": "payable",
      "type": "function",
      "payable": true
    },
    {
      "inputs": [
        {
          "internalType": "bytes32",
          "name": "productHash",
          "type": "bytes32"
        }
      ],
      "name": "repurchaseProduct",
      "outputs": [],
      "stateMutability": "payable",
      "type": "function",
      "payable": true
    },
    {
      "inputs": [
        {
          "internalType": "bytes32",
          "name": "productHash",
          "type": "bytes32"
        }
      ],
      "name": "activateProduct",
      "outputs": [],
      "stateMutability": "nonpayable",
      "type": "function"
    },
    {
      "inputs": [
        {
          "internalType": "bytes32",
          "name": "productHash",
          "type": "bytes32"
        }
      ],
      "name": "deactivateProduct",
      "outputs": [],
      "stateMutability": "nonpayable",
      "type": "function"
    },
    {
      "inputs": [
        {
          "internalType": "address",
          "name": "newOwner",
          "type": "address"
        }
      ],
      "name": "transferOwnership",
      "outputs": [],
      "stateMutability": "nonpayable",
      "type": "function"
    },
    {
      "inputs": [],
      "name": "getProductCount",
      "outputs": [
        {
          "internalType": "uint256",
          "name": "",
          "type": "uint256"
        }
      ],
      "stateMutability": "view",
      "type": "function",
      "constant": true
    },
    {
      "inputs": [
        {
          "internalType": "uint256",
          "name": "index",
          "type": "uint256"
        }
      ],
      "name": "getProductHashAtIndex",
      "outputs": [
        {
          "internalType": "bytes32",
          "name": "",
          "type": "bytes32"
        }
      ],
      "stateMutability": "view",
      "type": "function",
      "constant": true
    },
    {
      "inputs": [
        {
          "internalType": "bytes32",
          "name": "productHash",
          "type": "bytes32"
        }
      ],
      "name": "getProductByHash",
      "outputs": [
        {
          "components": [
            {
              "internalType": "uint256",
              "name": "id",
              "type": "uint256"
            },
            {
              "internalType": "uint256",
              "name": "price",
              "type": "uint256"
            },
            {
              "internalType": "bytes32",
              "name": "proof",
              "type": "bytes32"
            },
            {
              "internalType": "address",
              "name": "owner",
              "type": "address"
            },
            {
              "internalType": "enum ProductMarketplace.State",
              "name": "state",
              "type": "uint8"
            }
          ],
          "internalType": "struct ProductMarketplace.Product",
          "name": "",
          "type": "tuple"
        }
      ],
      "stateMutability": "view",
      "type": "function",
      "constant": true
    },
    {
      "inputs": [],
      "name": "getContractOwner",
      "outputs": [
        {
          "internalType": "address",
          "name": "",
          "type": "address"
        }
      ],
      "stateMutability": "view",
      "type": "function",
      "constant": true
    }
  ],
  "bytecode": "0x608060405260008060006101000a81548160ff02191690831515021790555034801561002a57600080fd5b5061003a3361003f60201b60201c565b610083565b80600460006101000a81548173ffffffffffffffffffffffffffffffffffffffff021916908373ffffffffffffffffffffffffffffffffffffffff16021790555050565b6117d7806100926000396000f3fe6080604052600436106100ec5760003560e01c80639cb8a26a1161008a578063ce1dbb6f11610059578063ce1dbb6f14610292578063db2e21bc146102ae578063f2fde38b146102c5578063fc14ff22146102ee576100f3565b80639cb8a26a146101fe5780639f11d94014610215578063a6d6e7aa14610252578063c4bc5da51461027b576100f3565b8063442890d5116100c6578063442890d5146101635780634a348da91461018e5780634f8c5773146101b95780635e862564146101d5576100f3565b806312253a6c146100f85780632e1a7d4d1461010f5780633f683b6a14610138576100f3565b366100f357005b600080fd5b34801561010457600080fd5b5061010d61032b565b005b34801561011b57600080fd5b50610136600480360381019061013191906111d8565b6103b3565b005b34801561014457600080fd5b5061014d6104f1565b60405161015a9190611220565b60405180910390f35b34801561016f57600080fd5b50610178610502565b604051610185919061127c565b60405180910390f35b34801561019a57600080fd5b506101a361052c565b6040516101b091906112a6565b60405180910390f35b6101d360048036038101906101ce91906112f7565b610536565b005b3480156101e157600080fd5b506101fc60048036038101906101f791906112f7565b61068b565b005b34801561020a57600080fd5b506102136108e4565b005b34801561022157600080fd5b5061023c600480360381019061023791906112f7565b6109a2565b6040516102499190611430565b60405180910390f35b34801561025e57600080fd5b50610279600480360381019061027491906112f7565b610a7e565b005b34801561028757600080fd5b50610290610bf8565b005b6102ac60048036038101906102a791906114a3565b610c80565b005b3480156102ba57600080fd5b506102c3610e39565b005b3480156102d157600080fd5b506102ec60048036038101906102e7919061150f565b610f8d565b005b3480156102fa57600080fd5b50610315600480360381019061031091906111d8565b611005565b604051610322919061154b565b60405180910390f35b610333610502565b73ffffffffffffffffffffffffffffffffffffffff163373ffffffffffffffffffffffffffffffffffffffff1614610397576040517f5fc483c500000000000000000000000000000000000000000000000000000000815260040160405180910390fd5b60016000806101000a81548160ff021916908315150217905550565b6103bb610502565b73ffffffffffffffffffffffffffffffffffffffff163373ffffffffffffffffffffffffffffffffffffffff161461041f576040517f5fc483c500000000000000000000000000000000000000000000000000000000815260040160405180910390fd5b6000600460009054906101000a900473ffffffffffffffffffffffffffffffffffffffff1673ffffffffffffffffffffffffffffffffffffffff168260405161046790611597565b60006040518083038185875af1925050503d80600081146104a4576040519150601f19603f3d011682016040523d82523d6000602084013e6104a9565b606091505b50509050806104ed576040517f08c379a00000000000000000000000000000000000000000000000000000000081526004016104e490611609565b60405180910390fd5b5050565b60008054906101000a900460ff1681565b6000600460009054906101000a900473ffffffffffffffffffffffffffffffffffffffff16905090565b6000600354905090565b60008054906101000a900460ff161561054e57600080fd5b61055781611022565b61058d576040517f16db45e200000000000000000000000000000000000000000000000000000000815260040160405180910390fd5b61059681611091565b6105cc576040517f80fa310500000000000000000000000000000000000000000000000000000000815260040160405180910390fd5b60006001600083815260200190815260200160002090506002808111156105f6576105f5611351565b5b8160030160149054906101000a900460ff16600281111561061a57610619611351565b5b14610651576040517fbaf3f0f700000000000000000000000000000000000000000000000000000000815260040160405180910390fd5b60008160030160146101000a81548160ff0219169083600281111561067957610678611351565b5b02179055503481600101819055505050565b60008054906101000a900460ff16156106a357600080fd5b6106ab610502565b73ffffffffffffffffffffffffffffffffffffffff163373ffffffffffffffffffffffffffffffffffffffff161461070f576040517f5fc483c500000000000000000000000000000000000000000000000000000000815260040160405180910390fd5b61071881611022565b61074e576040517f16db45e200000000000000000000000000000000000000000000000000000000815260040160405180910390fd5b60006001600083815260200190815260200160002090506000600281111561077957610778611351565b5b8160030160149054906101000a900460ff16600281111561079d5761079c611351565b5b146107d4576040517fbaf3f0f700000000000000000000000000000000000000000000000000000000815260040160405180910390fd5b60008160030160009054906101000a900473ffffffffffffffffffffffffffffffffffffffff1673ffffffffffffffffffffffffffffffffffffffff16826001015460405161082290611597565b60006040518083038185875af1925050503d806000811461085f576040519150601f19603f3d011682016040523d82523d6000602084013e610864565b606091505b50509050806108a8576040517f08c379a000000000000000000000000000000000000000000000000000000000815260040161089f90611675565b60405180910390fd5b60028260030160146101000a81548160ff021916908360028111156108d0576108cf611351565b5b021790555060008260010181905550505050565b60008054906101000a900460ff166108fb57600080fd5b610903610502565b73ffffffffffffffffffffffffffffffffffffffff163373ffffffffffffffffffffffffffffffffffffffff1614610967576040517f5fc483c500000000000000000000000000000000000000000000000000000000815260040160405180910390fd5b600460009054906101000a900473ffffffffffffffffffffffffffffffffffffffff1673ffffffffffffffffffffffffffffffffffffffff16ff5b6109aa611143565b600160008381526020019081526020016000206040518060a00160405290816000820154815260200160018201548152602001600282015481526020016003820160009054906101000a900473ffffffffffffffffffffffffffffffffffffffff1673ffffffffffffffffffffffffffffffffffffffff1673ffffffffffffffffffffffffffffffffffffffff1681526020016003820160149054906101000a900460ff166002811115610a6157610a60611351565b5b6002811115610a7357610a72611351565b5b815250509050919050565b60008054906101000a900460ff1615610a9657600080fd5b610a9e610502565b73ffffffffffffffffffffffffffffffffffffffff163373ffffffffffffffffffffffffffffffffffffffff1614610b02576040517f5fc483c500000000000000000000000000000000000000000000000000000000815260040160405180910390fd5b610b0b81611022565b610b41576040517f16db45e200000000000000000000000000000000000000000000000000000000815260040160405180910390fd5b600060016000838152602001908152602001600020905060006002811115610b6c57610b6b611351565b5b8160030160149054906101000a900460ff166002811115610b9057610b8f611351565b5b14610bc7576040517fbaf3f0f700000000000000000000000000000000000000000000000000000000815260040160405180910390fd5b60018160030160146101000a81548160ff02191690836002811115610bef57610bee611351565b5b02179055505050565b610c00610502565b73ffffffffffffffffffffffffffffffffffffffff163373ffffffffffffffffffffffffffffffffffffffff1614610c64576040517f5fc483c500000000000000000000000000000000000000000000000000000000815260040160405180910390fd5b60008060006101000a81548160ff021916908315150217905550565b60008054906101000a900460ff1615610c9857600080fd5b60008233604051602001610cad9291906116fe565b604051602081830303815290604052805190602001209050610cce81611091565b15610d05576040517f6bd3a7aa00000000000000000000000000000000000000000000000000000000815260040160405180910390fd5b600060036000815480929190610d1a90611759565b9190505590508160026000838152602001908152602001600020819055506040518060a001604052808281526020013481526020018481526020013373ffffffffffffffffffffffffffffffffffffffff16815260200160006002811115610d8557610d84611351565b5b8152506001600084815260200190815260200160002060008201518160000155602082015181600101556040820151816002015560608201518160030160006101000a81548173ffffffffffffffffffffffffffffffffffffffff021916908373ffffffffffffffffffffffffffffffffffffffff16021790555060808201518160030160146101000a81548160ff02191690836002811115610e2b57610e2a611351565b5b021790555090505050505050565b60008054906101000a900460ff16610e5057600080fd5b610e58610502565b73ffffffffffffffffffffffffffffffffffffffff163373ffffffffffffffffffffffffffffffffffffffff1614610ebc576040517f5fc483c500000000000000000000000000000000000000000000000000000000815260040160405180910390fd5b6000600460009054906101000a900473ffffffffffffffffffffffffffffffffffffffff1673ffffffffffffffffffffffffffffffffffffffff1647604051610f0490611597565b60006040518083038185875af1925050503d8060008114610f41576040519150601f19603f3d011682016040523d82523d6000602084013e610f46565b606091505b5050905080610f8a576040517f08c379a0000000000000000000000000000000000000000000000000000000008152600401610f8190611609565b60405180910390fd5b50565b610f95610502565b73ffffffffffffffffffffffffffffffffffffffff163373ffffffffffffffffffffffffffffffffffffffff1614610ff9576040517f5fc483c500000000000000000000000000000000000000000000000000000000815260040160405180910390fd5b611002816110ff565b50565b600060026000838152602001908152602001600020549050919050565b60008073ffffffffffffffffffffffffffffffffffffffff166001600084815260200190815260200160002060030160009054906101000a900473ffffffffffffffffffffffffffffffffffffffff1673ffffffffffffffffffffffffffffffffffffffff1614159050919050565b60003373ffffffffffffffffffffffffffffffffffffffff166001600084815260200190815260200160002060030160009054906101000a900473ffffffffffffffffffffffffffffffffffffffff1673ffffffffffffffffffffffffffffffffffffffff16149050919050565b80600460006101000a81548173ffffffffffffffffffffffffffffffffffffffff021916908373ffffffffffffffffffffffffffffffffffffffff16021790555050565b6040518060a00160405280600081526020016000815260200160008019168152602001600073ffffffffffffffffffffffffffffffffffffffff1681526020016000600281111561119757611196611351565b5b81525090565b600080fd5b6000819050919050565b6111b5816111a2565b81146111c057600080fd5b50565b6000813590506111d2816111ac565b92915050565b6000602082840312156111ee576111ed61119d565b5b60006111fc848285016111c3565b91505092915050565b60008115159050919050565b61121a81611205565b82525050565b60006020820190506112356000830184611211565b92915050565b600073ffffffffffffffffffffffffffffffffffffffff82169050919050565b60006112668261123b565b9050919050565b6112768161125b565b82525050565b6000602082019050611291600083018461126d565b92915050565b6112a0816111a2565b82525050565b60006020820190506112bb6000830184611297565b92915050565b6000819050919050565b6112d4816112c1565b81146112df57600080fd5b50565b6000813590506112f1816112cb565b92915050565b60006020828403121561130d5761130c61119d565b5b600061131b848285016112e2565b91505092915050565b61132d816111a2565b82525050565b61133c816112c1565b82525050565b61134b8161125b565b82525050565b7f4e487b7100000000000000000000000000000000000000000000000000000000600052602160045260246000fd5b6003811061139157611390611351565b5b50565b60008190506113a282611380565b919050565b60006113b282611394565b9050919050565b6113c2816113a7565b82525050565b60a0820160008201516113de6000850182611324565b5060208201516113f16020850182611324565b5060408201516114046040850182611333565b5060608201516114176060850182611342565b50608082015161142a60808501826113b9565b50505050565b600060a08201905061144560008301846113c8565b92915050565b60007fffffffffffffffffffffffffffffffff0000000000000000000000000000000082169050919050565b6114808161144b565b811461148b57600080fd5b50565b60008135905061149d81611477565b92915050565b600080604083850312156114ba576114b961119d565b5b60006114c88582860161148e565b92505060206114d9858286016112e2565b9150509250929050565b6114ec8161125b565b81146114f757600080fd5b50565b600081359050611509816114e3565b92915050565b6000602082840312156115255761152461119d565b5b6000611533848285016114fa565b91505092915050565b611545816112c1565b82525050565b6000602082019050611560600083018461153c565b92915050565b600081905092915050565b50565b6000611581600083611566565b915061158c82611571565b600082019050919050565b60006115a282611574565b9150819050919050565b600082825260208201905092915050565b7f5472616e73666572206661696c65642e00000000000000000000000000000000600082015250565b60006115f36010836115ac565b91506115fe826115bd565b602082019050919050565b60006020820190508181036000830152611622816115e6565b9050919050565b7f5472616e73666572206661696c65642100000000000000000000000000000000600082015250565b600061165f6010836115ac565b915061166a82611629565b602082019050919050565b6000602082019050818103600083015261168e81611652565b9050919050565b6000819050919050565b6116b06116ab8261144b565b611695565b82525050565b60008160601b9050919050565b60006116ce826116b6565b9050919050565b60006116e0826116c3565b9050919050565b6116f86116f38261125b565b6116d5565b82525050565b600061170a828561169f565b60108201915061171a82846116e7565b6014820191508190509392505050565b7f4e487b7100000000000000000000000000000000000000000000000000000000600052601160045260246000fd5b6000611764826111a2565b91507fffffffffffffffffffffffffffffffffffffffffffffffffffffffffffffffff82036117965761179561172a565b5b60018201905091905056fea2646970667358221220113cfcc2e15c02cba085ed81b8030249440ad7c00800cef01e94e44796ca0f8864736f6c63430008100033",
  "immutableReferences": {},
  "source": "// SPDX-License-Identifier: MIT\npragma solidity >=0.4.22 <0.9.0;\n\ncontract ProductMarketplace {\n\n  enum State {\n    Purchased,\n    Activated,\n    Deactivated\n  }\n\n  struct Product {\n    uint id; // 32\n    uint price; // 32\n    bytes32 proof; // 32\n    address owner; // 20\n    State state; // 1\n  }\n\n  bool public isStopped = false;\n\n  // mapping of productHash to Product data\n  mapping(bytes32 => Product) private ownedProducts;\n\n  // mapping of productID to productHash\n  mapping(uint => bytes32) private ownedProductHash;\n\n  // number of all products + id of the product\n  uint private totalOwnedProducts;\n\n  address payable private owner;\n\n  constructor() {\n    setContractOwner(msg.sender);\n  }\n\n  /// Product has invalid state!\n  error InvalidState();\n\n  /// Product is not created!\n  error ProductIsNotCreated();\n\n  /// Product has already a Owner!\n  error ProductHasOwner();\n\n  /// Sender is not product owner!\n  error SenderIsNotProductOwner();\n\n  /// Only owner has an access!\n  error OnlyOwner();\n\n  modifier onlyOwner() {\n    if (msg.sender != getContractOwner()) {\n      revert OnlyOwner();\n    }\n    _;\n  }\n\n  modifier onlyWhenNotStopped {\n    require(!isStopped);\n    _;\n  }\n\n  modifier onlyWhenStopped {\n    require(isStopped);\n    _;\n  }\n\n  receive() external payable {}\n\n  function withdraw(uint amount)\n    external\n    onlyOwner\n  {\n    (bool success, ) = owner.call{value: amount}(\"\");\n    require(success, \"Transfer failed.\");\n  }\n\n  function emergencyWithdraw()\n    external\n    onlyWhenStopped\n    onlyOwner\n  {\n    (bool success, ) = owner.call{value: address(this).balance}(\"\");\n    require(success, \"Transfer failed.\");\n  }\n\n  function selfDestruct()\n    external\n    onlyWhenStopped\n    onlyOwner\n  {\n    selfdestruct(owner);\n  }\n\n  function stopContract()\n    external\n    onlyOwner\n  {\n    isStopped = true;\n  }\n\n  function resumeContract()\n    external\n    onlyOwner\n  {\n    isStopped = false;\n  }\n\n  function purchaseProduct(\n    bytes16 productId, // 0x00000000000000000000000000003130\n    bytes32 proof // 0x0000000000000000000000000000313000000000000000000000000000003130\n  )\n    external\n    payable\n    onlyWhenNotStopped\n  {\n    bytes32 productHash = keccak256(abi.encodePacked(productId, msg.sender));\n\n    if (hasProductOwnership(productHash)) {\n      revert ProductHasOwner();\n    }\n\n    uint id = totalOwnedProducts++;\n\n    ownedProductHash[id] = productHash;\n    ownedProducts[productHash] = Product({\n      id: id,\n      price: msg.value,\n      proof: proof,\n      owner: msg.sender,\n      state: State.Purchased\n    });\n  }\n\n  function repurchaseProduct(bytes32 productHash)\n    external\n    payable\n    onlyWhenNotStopped\n  {\n    if (!isProductCreated(productHash)) {\n      revert ProductIsNotCreated();\n    }\n\n    if (!hasProductOwnership(productHash)) {\n      revert SenderIsNotProductOwner();\n    }\n\n    Product storage product = ownedProducts[productHash];\n\n    if (product.state != State.Deactivated) {\n      revert InvalidState();\n    }\n\n    product.state = State.Purchased;\n    product.price = msg.value;\n  }\n\n  function activateProduct(bytes32 productHash)\n    external\n    onlyWhenNotStopped\n    onlyOwner\n  {\n    if (!isProductCreated(productHash)) {\n      revert ProductIsNotCreated();\n    }\n\n    Product storage product = ownedProducts[productHash];\n\n    if (product.state != State.Purchased) {\n      revert InvalidState();\n    }\n\n    product.state = State.Activated;\n  }\n\n  function deactivateProduct(bytes32 productHash)\n    external\n    onlyWhenNotStopped\n    onlyOwner\n  {\n    if (!isProductCreated(productHash)) {\n      revert ProductIsNotCreated();\n    }\n\n    Product storage product = ownedProducts[productHash];\n\n    if (product.state != State.Purchased) {\n      revert InvalidState();\n    }\n\n    (bool success, ) = product.owner.call{value: product.price}(\"\");\n    require(success, \"Transfer failed!\");\n\n    product.state = State.Deactivated;\n    product.price = 0;\n  }\n\n  function transferOwnership(address newOwner)\n    external\n    onlyOwner\n  {\n    setContractOwner(newOwner);\n  }\n\n  function getProductCount()\n    external\n    view\n    returns (uint)\n  {\n    return totalOwnedProducts;\n  }\n\n  function getProductHashAtIndex(uint index)\n    external\n    view\n    returns (bytes32)\n  {\n    return ownedProductHash[index];\n  }\n\n  function getProductByHash(bytes32 productHash)\n    external\n    view\n    returns (Product memory)\n  {\n    return ownedProducts[productHash];\n  }\n\n  function getContractOwner()\n    public\n    view\n    returns (address)\n  {\n    return owner;\n  }\n\n  function setContractOwner(address newOwner) private {\n    owner = payable(newOwner);\n  }\n\n  function isProductCreated(bytes32 productHash)\n    private\n    view\n    returns (bool)\n  {\n    return ownedProducts[productHash].owner != 0x0000000000000000000000000000000000000000;\n  }\n\n  function hasProductOwnership(bytes32 productHash)\n    private\n    view\n    returns (bool)\n  {\n    return ownedProducts[productHash].owner == msg.sender;\n  }\n}",
  "sourcePath": "/Users/kornelbartha/Documents/University of Exeter/Term2/Heckaton Project/Project_H/marketplace-eth/contracts/ProductMarketplace.sol",
  "compiler": {
    "name": "solc",
    "version": "0.8.16+commit.07a7930e.Darwin.appleclang"
  },
  "schemaVersion": "3.4.9",
  "updatedAt": "2022-08-14T10:11:49.337Z",
  "networkType": "ethereum",
  "devdoc": {
    "kind": "dev",
    "methods": {},
    "version": 1
  },
  "userdoc": {
    "errors": {
      "InvalidState()": [
        {
          "notice": "Product has invalid state!"
        }
      ],
      "OnlyOwner()": [
        {
          "notice": "Only owner has an access!"
        }
      ],
      "ProductHasOwner()": [
        {
          "notice": "Product has already a Owner!"
        }
      ],
      "ProductIsNotCreated()": [
        {
          "notice": "Product is not created!"
        }
      ],
      "SenderIsNotProductOwner()": [
        {
          "notice": "Sender is not product owner!"
        }
      ]
    },
    "kind": "user",
    "methods": {},
    "version": 1
  }
}